{
  "contractName": "Gateway",
  "abi": [
    {
      "constant": true,
      "inputs": [],
      "name": "x",
      "outputs": [
        {
          "name": "",
          "type": "uint256"
        }
      ],
      "payable": false,
      "stateMutability": "view",
      "type": "function"
    },
    {
      "constant": false,
      "inputs": [
        {
          "name": "_x",
          "type": "uint256"
        }
      ],
      "name": "initialize",
      "outputs": [],
      "payable": false,
      "stateMutability": "nonpayable",
      "type": "function"
    },
    {
      "constant": false,
      "inputs": [],
      "name": "increment",
      "outputs": [],
      "payable": false,
      "stateMutability": "nonpayable",
      "type": "function"
    }
  ],
  "bytecode": "0x608060405234801561001057600080fd5b506102ad806100206000396000f3fe608060405260043610610057576000357c0100000000000000000000000000000000000000000000000000000000900463ffffffff1680630c55699c1461005c578063d09de08a14610087578063fe4b84df1461009e575b600080fd5b34801561006857600080fd5b506100716100d9565b6040518082815260200191505060405180910390f35b34801561009357600080fd5b5061009c6100df565b005b3480156100aa57600080fd5b506100d7600480360360208110156100c157600080fd5b81019080803590602001909291905050506100f2565b005b60345481565b6001603460008282540192505081905550565b600060019054906101000a900460ff16806101115750610110610270565b5b8061012857506000809054906101000a900460ff16155b15156101c2576040517f08c379a000000000000000000000000000000000000000000000000000000000815260040180806020018281038252602e8152602001807f436f6e747261637420696e7374616e63652068617320616c726561647920626581526020017f656e20696e697469616c697a656400000000000000000000000000000000000081525060400191505060405180910390fd5b60008060019054906101000a900460ff1690506001600060016101000a81548160ff02191690831515021790555060016000806101000a81548160ff02191690831515021790555033603360006101000a81548173ffffffffffffffffffffffffffffffffffffffff021916908373ffffffffffffffffffffffffffffffffffffffff1602179055508160348190555080600060016101000a81548160ff0219169083151502179055505050565b600080303b9050600081149150509056fea165627a7a7230582018435d1a72dece7eac2eea39c0e5d45166416e1d5f0f9f97d41c3d7f8c4ac1fc0029",
  "source": "pragma solidity ^0.5.0;\n\nimport \"openzeppelin-eth/contracts/token/ERC20/IERC20.sol\";\n// import \"openzeppelin-eth/contracts/ownership/Ownable.sol\";\nimport \"zos-lib/contracts/Initializable.sol\";\n\ncontract Gateway is Initializable {\n    address private _owner;\n    uint256 public x;\n\n    function initialize(uint256 _x) public initializer {\n        _owner = msg.sender;\n        x = _x;\n    }\n\n    function increment() public {\n        x += 1;\n    }\n}\n",
  "sourcePath": "/Users/alexintosh/Code/DEXLAB/DEXPAY/dexpay-gateway-contracts/contracts/Gateway.sol",
  "compiler": {
    "name": "solc",
    "version": "0.5.0+commit.1d4f565a.Emscripten.clang"
  },
  "schemaVersion": "3.0.1",
  "updatedAt": "2019-03-13T11:50:31.842Z",
  "devdoc": {
    "methods": {}
  },
  "userdoc": {
    "methods": {}
  }
}